:10000300E4F50AF50B750C04F50DD290C291D2926A
:10001300C293F508F5097F0A7E001200B9B280B2D7
:10002300810509E50970020508C39464E508940095
:1000330040E4C290D291C292D293E4F508F5097FCD
:10004300147E001200B9B280B2810509E50970027D
:100053000508C39464E508940040E4D290C291D2A9
:1000630092C293E50B650D7004E50A650C6018D226
:1000730080D281050BE50BAE0A7002050A14FF124C
:1000830000E61200D780DCC290D291C292D293E5EF
:100093000B650D7004E50A650C7003020003D28042
:1000A300D281050BE50BAE0A7002050A14FF12009C
:0600B300E61200D780D91F
:1000B900D3EF9400EE940040147D6E7C00ED1D702A
:0D00C900011CED4C70F7EF1F70E61E80E388
:0100D6002207
:0F00D700C280C281C3E50D950BFFE50C950AFEB3
:0B00E600EF1FAC0670011E4C70F622EC
:030000000200F10A
:0C00F100787FE4F6D8FD75810D02000355
:00000001FF
